{
  "_format": "hh-sol-artifact-1",
  "contractName": "VoteToken",
  "sourceName": "src/VoteToken.sol",
  "abi": [
    {
      "inputs": [
        {
          "internalType": "string",
          "name": "_name",
          "type": "string"
        },
        {
          "internalType": "string",
          "name": "_symbol",
          "type": "string"
        }
      ],
      "stateMutability": "nonpayable",
      "type": "constructor"
    },
    {
      "inputs": [],
      "name": "CheckpointUnorderedInsertion",
      "type": "error"
    },
    {
      "inputs": [],
      "name": "ECDSAInvalidSignature",
      "type": "error"
    },
    {
      "inputs": [
        {
          "internalType": "uint256",
          "name": "length",
          "type": "uint256"
        }
      ],
      "name": "ECDSAInvalidSignatureLength",
      "type": "error"
    },
    {
      "inputs": [
        {
          "internalType": "bytes32",
          "name": "s",
          "type": "bytes32"
        }
      ],
      "name": "ECDSAInvalidSignatureS",
      "type": "error"
    },
    {
      "inputs": [
        {
          "internalType": "uint256",
          "name": "increasedSupply",
          "type": "uint256"
        },
        {
          "internalType": "uint256",
          "name": "cap",
          "type": "uint256"
        }
      ],
      "name": "ERC20ExceededSafeSupply",
      "type": "error"
    },
    {
      "inputs": [
        {
          "internalType": "address",
          "name": "spender",
          "type": "address"
        },
        {
          "internalType": "uint256",
          "name": "allowance",
          "type": "uint256"
        },
        {
          "internalType": "uint256",
          "name": "needed",
          "type": "uint256"
        }
      ],
      "name": "ERC20InsufficientAllowance",
      "type": "error"
    },
    {
      "inputs": [
        {
          "internalType": "address",
          "name": "sender",
          "type": "address"
        },
        {
          "internalType": "uint256",
          "name": "balance",
          "type": "uint256"
        },
        {
          "internalType": "uint256",
          "name": "needed",
          "type": "uint256"
        }
      ],
      "name": "ERC20InsufficientBalance",
      "type": "error"
    },
    {
      "inputs": [
        {
          "internalType": "address",
          "name": "approver",
          "type": "address"
        }
      ],
      "name": "ERC20InvalidApprover",
      "type": "error"
    },
    {
      "inputs": [
        {
          "internalType": "address",
          "name": "receiver",
          "type": "address"
        }
      ],
      "name": "ERC20InvalidReceiver",
      "type": "error"
    },
    {
      "inputs": [
        {
          "internalType": "address",
          "name": "sender",
          "type": "address"
        }
      ],
      "name": "ERC20InvalidSender",
      "type": "error"
    },
    {
      "inputs": [
        {
          "internalType": "address",
          "name": "spender",
          "type": "address"
        }
      ],
      "name": "ERC20InvalidSpender",
      "type": "error"
    },
    {
      "inputs": [
        {
          "internalType": "uint256",
          "name": "deadline",
          "type": "uint256"
        }
      ],
      "name": "ERC2612ExpiredSignature",
      "type": "error"
    },
    {
      "inputs": [
        {
          "internalType": "address",
          "name": "signer",
          "type": "address"
        },
        {
          "internalType": "address",
          "name": "owner",
          "type": "address"
        }
      ],
      "name": "ERC2612InvalidSigner",
      "type": "error"
    },
    {
      "inputs": [
        {
          "internalType": "uint256",
          "name": "timepoint",
          "type": "uint256"
        },
        {
          "internalType": "uint48",
          "name": "clock",
          "type": "uint48"
        }
      ],
      "name": "ERC5805FutureLookup",
      "type": "error"
    },
    {
      "inputs": [],
      "name": "ERC6372InconsistentClock",
      "type": "error"
    },
    {
      "inputs": [
        {
          "internalType": "address",
          "name": "account",
          "type": "address"
        },
        {
          "internalType": "uint256",
          "name": "currentNonce",
          "type": "uint256"
        }
      ],
      "name": "InvalidAccountNonce",
      "type": "error"
    },
    {
      "inputs": [],
      "name": "InvalidShortString",
      "type": "error"
    },
    {
      "inputs": [
        {
          "internalType": "uint8",
          "name": "bits",
          "type": "uint8"
        },
        {
          "internalType": "uint256",
          "name": "value",
          "type": "uint256"
        }
      ],
      "name": "SafeCastOverflowedUintDowncast",
      "type": "error"
    },
    {
      "inputs": [
        {
          "internalType": "string",
          "name": "str",
          "type": "string"
        }
      ],
      "name": "StringTooLong",
      "type": "error"
    },
    {
      "inputs": [
        {
          "internalType": "uint256",
          "name": "expiry",
          "type": "uint256"
        }
      ],
      "name": "VotesExpiredSignature",
      "type": "error"
    },
    {
      "anonymous": false,
      "inputs": [
        {
          "indexed": true,
          "internalType": "address",
          "name": "owner",
          "type": "address"
        },
        {
          "indexed": true,
          "internalType": "address",
          "name": "spender",
          "type": "address"
        },
        {
          "indexed": false,
          "internalType": "uint256",
          "name": "value",
          "type": "uint256"
        }
      ],
      "name": "Approval",
      "type": "event"
    },
    {
      "anonymous": false,
      "inputs": [
        {
          "indexed": true,
          "internalType": "address",
          "name": "delegator",
          "type": "address"
        },
        {
          "indexed": true,
          "internalType": "address",
          "name": "fromDelegate",
          "type": "address"
        },
        {
          "indexed": true,
          "internalType": "address",
          "name": "toDelegate",
          "type": "address"
        }
      ],
      "name": "DelegateChanged",
      "type": "event"
    },
    {
      "anonymous": false,
      "inputs": [
        {
          "indexed": true,
          "internalType": "address",
          "name": "delegate",
          "type": "address"
        },
        {
          "indexed": false,
          "internalType": "uint256",
          "name": "previousVotes",
          "type": "uint256"
        },
        {
          "indexed": false,
          "internalType": "uint256",
          "name": "newVotes",
          "type": "uint256"
        }
      ],
      "name": "DelegateVotesChanged",
      "type": "event"
    },
    {
      "anonymous": false,
      "inputs": [],
      "name": "EIP712DomainChanged",
      "type": "event"
    },
    {
      "anonymous": false,
      "inputs": [
        {
          "indexed": true,
          "internalType": "address",
          "name": "from",
          "type": "address"
        },
        {
          "indexed": true,
          "internalType": "address",
          "name": "to",
          "type": "address"
        },
        {
          "indexed": false,
          "internalType": "uint256",
          "name": "value",
          "type": "uint256"
        }
      ],
      "name": "Transfer",
      "type": "event"
    },
    {
      "inputs": [],
      "name": "CLOCK_MODE",
      "outputs": [
        {
          "internalType": "string",
          "name": "",
          "type": "string"
        }
      ],
      "stateMutability": "pure",
      "type": "function"
    },
    {
      "inputs": [],
      "name": "DOMAIN_SEPARATOR",
      "outputs": [
        {
          "internalType": "bytes32",
          "name": "",
          "type": "bytes32"
        }
      ],
      "stateMutability": "view",
      "type": "function"
    },
    {
      "inputs": [
        {
          "internalType": "address",
          "name": "owner",
          "type": "address"
        },
        {
          "internalType": "address",
          "name": "spender",
          "type": "address"
        }
      ],
      "name": "allowance",
      "outputs": [
        {
          "internalType": "uint256",
          "name": "",
          "type": "uint256"
        }
      ],
      "stateMutability": "view",
      "type": "function"
    },
    {
      "inputs": [
        {
          "internalType": "address",
          "name": "spender",
          "type": "address"
        },
        {
          "internalType": "uint256",
          "name": "value",
          "type": "uint256"
        }
      ],
      "name": "approve",
      "outputs": [
        {
          "internalType": "bool",
          "name": "",
          "type": "bool"
        }
      ],
      "stateMutability": "nonpayable",
      "type": "function"
    },
    {
      "inputs": [
        {
          "internalType": "address",
          "name": "account",
          "type": "address"
        }
      ],
      "name": "balanceOf",
      "outputs": [
        {
          "internalType": "uint256",
          "name": "",
          "type": "uint256"
        }
      ],
      "stateMutability": "view",
      "type": "function"
    },
    {
      "inputs": [
        {
          "internalType": "address",
          "name": "account",
          "type": "address"
        },
        {
          "internalType": "uint32",
          "name": "pos",
          "type": "uint32"
        }
      ],
      "name": "checkpoints",
      "outputs": [
        {
          "components": [
            {
              "internalType": "uint48",
              "name": "_key",
              "type": "uint48"
            },
            {
              "internalType": "uint208",
              "name": "_value",
              "type": "uint208"
            }
          ],
          "internalType": "struct Checkpoints.Checkpoint208",
          "name": "",
          "type": "tuple"
        }
      ],
      "stateMutability": "view",
      "type": "function"
    },
    {
      "inputs": [],
      "name": "clock",
      "outputs": [
        {
          "internalType": "uint48",
          "name": "",
          "type": "uint48"
        }
      ],
      "stateMutability": "view",
      "type": "function"
    },
    {
      "inputs": [],
      "name": "decimals",
      "outputs": [
        {
          "internalType": "uint8",
          "name": "",
          "type": "uint8"
        }
      ],
      "stateMutability": "view",
      "type": "function"
    },
    {
      "inputs": [
        {
          "internalType": "address",
          "name": "delegatee",
          "type": "address"
        }
      ],
      "name": "delegate",
      "outputs": [],
      "stateMutability": "nonpayable",
      "type": "function"
    },
    {
      "inputs": [
        {
          "internalType": "address",
          "name": "delegatee",
          "type": "address"
        },
        {
          "internalType": "uint256",
          "name": "nonce",
          "type": "uint256"
        },
        {
          "internalType": "uint256",
          "name": "expiry",
          "type": "uint256"
        },
        {
          "internalType": "uint8",
          "name": "v",
          "type": "uint8"
        },
        {
          "internalType": "bytes32",
          "name": "r",
          "type": "bytes32"
        },
        {
          "internalType": "bytes32",
          "name": "s",
          "type": "bytes32"
        }
      ],
      "name": "delegateBySig",
      "outputs": [],
      "stateMutability": "nonpayable",
      "type": "function"
    },
    {
      "inputs": [
        {
          "internalType": "address",
          "name": "account",
          "type": "address"
        }
      ],
      "name": "delegates",
      "outputs": [
        {
          "internalType": "address",
          "name": "",
          "type": "address"
        }
      ],
      "stateMutability": "view",
      "type": "function"
    },
    {
      "inputs": [],
      "name": "eip712Domain",
      "outputs": [
        {
          "internalType": "bytes1",
          "name": "fields",
          "type": "bytes1"
        },
        {
          "internalType": "string",
          "name": "name",
          "type": "string"
        },
        {
          "internalType": "string",
          "name": "version",
          "type": "string"
        },
        {
          "internalType": "uint256",
          "name": "chainId",
          "type": "uint256"
        },
        {
          "internalType": "address",
          "name": "verifyingContract",
          "type": "address"
        },
        {
          "internalType": "bytes32",
          "name": "salt",
          "type": "bytes32"
        },
        {
          "internalType": "uint256[]",
          "name": "extensions",
          "type": "uint256[]"
        }
      ],
      "stateMutability": "view",
      "type": "function"
    },
    {
      "inputs": [
        {
          "internalType": "uint256",
          "name": "timepoint",
          "type": "uint256"
        }
      ],
      "name": "getPastTotalSupply",
      "outputs": [
        {
          "internalType": "uint256",
          "name": "",
          "type": "uint256"
        }
      ],
      "stateMutability": "view",
      "type": "function"
    },
    {
      "inputs": [
        {
          "internalType": "address",
          "name": "account",
          "type": "address"
        },
        {
          "internalType": "uint256",
          "name": "timepoint",
          "type": "uint256"
        }
      ],
      "name": "getPastVotes",
      "outputs": [
        {
          "internalType": "uint256",
          "name": "",
          "type": "uint256"
        }
      ],
      "stateMutability": "view",
      "type": "function"
    },
    {
      "inputs": [
        {
          "internalType": "address",
          "name": "account",
          "type": "address"
        }
      ],
      "name": "getVotes",
      "outputs": [
        {
          "internalType": "uint256",
          "name": "",
          "type": "uint256"
        }
      ],
      "stateMutability": "view",
      "type": "function"
    },
    {
      "inputs": [
        {
          "internalType": "address",
          "name": "to",
          "type": "address"
        },
        {
          "internalType": "uint256",
          "name": "amount",
          "type": "uint256"
        }
      ],
      "name": "mint",
      "outputs": [],
      "stateMutability": "nonpayable",
      "type": "function"
    },
    {
      "inputs": [],
      "name": "name",
      "outputs": [
        {
          "internalType": "string",
          "name": "",
          "type": "string"
        }
      ],
      "stateMutability": "view",
      "type": "function"
    },
    {
      "inputs": [
        {
          "internalType": "address",
          "name": "_owner",
          "type": "address"
        }
      ],
      "name": "nonces",
      "outputs": [
        {
          "internalType": "uint256",
          "name": "",
          "type": "uint256"
        }
      ],
      "stateMutability": "view",
      "type": "function"
    },
    {
      "inputs": [
        {
          "internalType": "address",
          "name": "account",
          "type": "address"
        }
      ],
      "name": "numCheckpoints",
      "outputs": [
        {
          "internalType": "uint32",
          "name": "",
          "type": "uint32"
        }
      ],
      "stateMutability": "view",
      "type": "function"
    },
    {
      "inputs": [
        {
          "internalType": "address",
          "name": "owner",
          "type": "address"
        },
        {
          "internalType": "address",
          "name": "spender",
          "type": "address"
        },
        {
          "internalType": "uint256",
          "name": "value",
          "type": "uint256"
        },
        {
          "internalType": "uint256",
          "name": "deadline",
          "type": "uint256"
        },
        {
          "internalType": "uint8",
          "name": "v",
          "type": "uint8"
        },
        {
          "internalType": "bytes32",
          "name": "r",
          "type": "bytes32"
        },
        {
          "internalType": "bytes32",
          "name": "s",
          "type": "bytes32"
        }
      ],
      "name": "permit",
      "outputs": [],
      "stateMutability": "nonpayable",
      "type": "function"
    },
    {
      "inputs": [],
      "name": "symbol",
      "outputs": [
        {
          "internalType": "string",
          "name": "",
          "type": "string"
        }
      ],
      "stateMutability": "view",
      "type": "function"
    },
    {
      "inputs": [],
      "name": "totalSupply",
      "outputs": [
        {
          "internalType": "uint256",
          "name": "",
          "type": "uint256"
        }
      ],
      "stateMutability": "view",
      "type": "function"
    },
    {
      "inputs": [
        {
          "internalType": "address",
          "name": "to",
          "type": "address"
        },
        {
          "internalType": "uint256",
          "name": "value",
          "type": "uint256"
        }
      ],
      "name": "transfer",
      "outputs": [
        {
          "internalType": "bool",
          "name": "",
          "type": "bool"
        }
      ],
      "stateMutability": "nonpayable",
      "type": "function"
    },
    {
      "inputs": [
        {
          "internalType": "address",
          "name": "from",
          "type": "address"
        },
        {
          "internalType": "address",
          "name": "to",
          "type": "address"
        },
        {
          "internalType": "uint256",
          "name": "value",
          "type": "uint256"
        }
      ],
      "name": "transferFrom",
      "outputs": [
        {
          "internalType": "bool",
          "name": "",
          "type": "bool"
        }
      ],
      "stateMutability": "nonpayable",
      "type": "function"
    }
  ],
  "bytecode": "0x6101606040523480156200001257600080fd5b50604051620022d3380380620022d3833981016040819052620000359162000286565b6040805180820190915260018152603160f81b602082015282908190818460036200006183826200037f565b5060046200007082826200037f565b50620000829150839050600562000134565b610120526200009381600662000134565b61014052815160208084019190912060e052815190820120610100524660a0526200012160e05161010051604080517f8b73c3c69bb8fe3d512ecc4cf759cc79239f7b179b0ffacaa9a75d522b39400f60208201529081019290925260608201524660808201523060a082015260009060c00160405160208183030381529060405280519060200120905090565b60805250503060c05250620004a5915050565b600060208351101562000154576200014c836200016d565b905062000167565b816200016184826200037f565b5060ff90505b92915050565b600080829050601f81511115620001a4578260405163305a27a960e01b81526004016200019b91906200044b565b60405180910390fd5b8051620001b18262000480565b179392505050565b634e487b7160e01b600052604160045260246000fd5b60005b83811015620001ec578181015183820152602001620001d2565b50506000910152565b600082601f8301126200020757600080fd5b81516001600160401b0380821115620002245762000224620001b9565b604051601f8301601f19908116603f011681019082821181831017156200024f576200024f620001b9565b816040528381528660208588010111156200026957600080fd5b6200027c846020830160208901620001cf565b9695505050505050565b600080604083850312156200029a57600080fd5b82516001600160401b0380821115620002b257600080fd5b620002c086838701620001f5565b93506020850151915080821115620002d757600080fd5b50620002e685828601620001f5565b9150509250929050565b600181811c908216806200030557607f821691505b6020821081036200032657634e487b7160e01b600052602260045260246000fd5b50919050565b601f8211156200037a57600081815260208120601f850160051c81016020861015620003555750805b601f850160051c820191505b81811015620003765782815560010162000361565b5050505b505050565b81516001600160401b038111156200039b576200039b620001b9565b620003b381620003ac8454620002f0565b846200032c565b602080601f831160018114620003eb5760008415620003d25750858301515b600019600386901b1c1916600185901b17855562000376565b600085815260208120601f198616915b828110156200041c57888601518255948401946001909101908401620003fb565b50858210156200043b5787850151600019600388901b60f8161c191681555b5050505050600190811b01905550565b60208152600082518060208401526200046c816040850160208701620001cf565b601f01601f19169190910160400192915050565b80516020808301519190811015620003265760001960209190910360031b1b16919050565b60805160a05160c05160e051610100516101205161014051611dd3620005006000396000610cda01526000610cad01526000610a8001526000610a58015260006109b3015260006109dd01526000610a070152611dd36000f3fe608060405234801561001057600080fd5b50600436106101585760003560e01c806370a08231116100c35780639ab24eb01161007c5780639ab24eb01461033c578063a9059cbb1461034f578063c3cda52014610362578063d505accf14610375578063dd62ed3e14610388578063f1127ed8146103c157600080fd5b806370a08231146102ab5780637ecebe00146102d457806384b0196e146102e75780638e539e8c1461030257806391ddadf41461031557806395d89b411461033457600080fd5b80633a46b1a8116101155780633a46b1a8146101da57806340c10f19146101ed5780634bf5d7e914610202578063587cde1e1461022c5780635c19a95c146102705780636fcfff451461028357600080fd5b806306fdde031461015d578063095ea7b31461017b57806318160ddd1461019e57806323b872dd146101b0578063313ce567146101c35780633644e515146101d2575b600080fd5b610165610400565b60405161017291906119d7565b60405180910390f35b61018e610189366004611a06565b610492565b6040519015158152602001610172565b6002545b604051908152602001610172565b61018e6101be366004611a30565b6104ac565b60405160128152602001610172565b6101a26104d5565b6101a26101e8366004611a06565b6104df565b6102006101fb366004611a06565b610565565b005b60408051808201909152600e81526d06d6f64653d74696d657374616d760941b6020820152610165565b61025861023a366004611a6c565b6001600160a01b039081166000908152600860205260409020541690565b6040516001600160a01b039091168152602001610172565b61020061027e366004611a6c565b610573565b610296610291366004611a6c565b61057e565b60405163ffffffff9091168152602001610172565b6101a26102b9366004611a6c565b6001600160a01b031660009081526020819052604090205490565b6101a26102e2366004611a6c565b610589565b6102ef610594565b6040516101729796959493929190611a87565b6101a2610310366004611b1d565b6105da565b61031d610644565b60405165ffffffffffff9091168152602001610172565b61016561064e565b6101a261034a366004611a6c565b61065d565b61018e61035d366004611a06565b61068d565b610200610370366004611b47565b61069b565b610200610383366004611b9f565b610758565b6101a2610396366004611c09565b6001600160a01b03918216600090815260016020908152604080832093909416825291909152205490565b6103d46103cf366004611c3c565b610892565b60408051825165ffffffffffff1681526020928301516001600160d01b03169281019290925201610172565b60606003805461040f90611c7c565b80601f016020809104026020016040519081016040528092919081815260200182805461043b90611c7c565b80156104885780601f1061045d57610100808354040283529160200191610488565b820191906000526020600020905b81548152906001019060200180831161046b57829003601f168201915b5050505050905090565b6000336104a08185856108b7565b60019150505b92915050565b6000336104ba8582856108c9565b6104c5858585610947565b506001949350505050565b905090565b60006104d06109a6565b6000806104ea610644565b90508065ffffffffffff16831061052a57604051637669fc0f60e11b81526004810184905265ffffffffffff821660248201526044015b60405180910390fd5b61055461053684610ad1565b6001600160a01b038616600090815260096020526040902090610b08565b6001600160d01b0316949350505050565b61056f8282610bbe565b5050565b3361056f8183610bf4565b60006104a682610c66565b60006104a682610c88565b6000606080600080600060606105a8610ca6565b6105b0610cd3565b60408051600080825260208201909252600f60f81b9b939a50919850469750309650945092509050565b6000806105e5610644565b90508065ffffffffffff16831061062057604051637669fc0f60e11b81526004810184905265ffffffffffff82166024820152604401610521565b61063461062c84610ad1565b600a90610b08565b6001600160d01b03169392505050565b60006104d0610d00565b60606004805461040f90611c7c565b6001600160a01b038116600090815260096020526040812061067e90610d0b565b6001600160d01b031692915050565b6000336104a0818585610947565b834211156106bf57604051632341d78760e11b815260048101859052602401610521565b604080517fe48329057bfd03d55e49b547132e39cffd9c1820ad7b9d4c5307691425d15adf60208201526001600160a01b038816918101919091526060810186905260808101859052600090610739906107319060a00160405160208183030381529060405280519060200120610d44565b858585610d71565b90506107458187610d9f565b61074f8188610bf4565b50505050505050565b8342111561077c5760405163313c898160e11b815260048101859052602401610521565b60007f6e71edae12b1b97f4d1f60370fef10105fa2faae0126114a169c64845d6126c98888886107c98c6001600160a01b0316600090815260076020526040902080546001810190915590565b6040805160208101969096526001600160a01b0394851690860152929091166060840152608083015260a082015260c0810186905260e001604051602081830303815290604052805190602001209050600061082482610d44565b9050600061083482878787610d71565b9050896001600160a01b0316816001600160a01b03161461087b576040516325c0072360e11b81526001600160a01b0380831660048301528b166024820152604401610521565b6108868a8a8a6108b7565b50505050505050505050565b60408051808201909152600080825260208201526108b08383610df2565b9392505050565b6108c48383836001610e28565b505050565b6001600160a01b038381166000908152600160209081526040808320938616835292905220546000198114610941578181101561093257604051637dc7a0d960e11b81526001600160a01b03841660048201526024810182905260448101839052606401610521565b61094184848484036000610e28565b50505050565b6001600160a01b03831661097157604051634b637e8f60e11b815260006004820152602401610521565b6001600160a01b03821661099b5760405163ec442f0560e01b815260006004820152602401610521565b6108c4838383610efd565b6000306001600160a01b037f0000000000000000000000000000000000000000000000000000000000000000161480156109ff57507f000000000000000000000000000000000000000000000000000000000000000046145b15610a2957507f000000000000000000000000000000000000000000000000000000000000000090565b6104d0604080517f8b73c3c69bb8fe3d512ecc4cf759cc79239f7b179b0ffacaa9a75d522b39400f60208201527f0000000000000000000000000000000000000000000000000000000000000000918101919091527f000000000000000000000000000000000000000000000000000000000000000060608201524660808201523060a082015260009060c00160405160208183030381529060405280519060200120905090565b600065ffffffffffff821115610b04576040516306dfcc6560e41b81526030600482015260248101839052604401610521565b5090565b815460009081816005811115610b67576000610b2384610f08565b610b2d9085611ccc565b60008881526020902090915081015465ffffffffffff9081169087161015610b5757809150610b65565b610b62816001611cdf565b92505b505b6000610b7587878585611061565b90508015610bb057610b9a87610b8c600184611ccc565b600091825260209091200190565b54600160301b90046001600160d01b0316610bb3565b60005b979650505050505050565b6001600160a01b038216610be85760405163ec442f0560e01b815260006004820152602401610521565b61056f60008383610efd565b6001600160a01b0382811660008181526008602052604080822080548686166001600160a01b0319821681179092559151919094169392849290917f3134e8a2e6d97e929a7e54011ea5485d7d196dd5f0ba4d4ef95803e8e3fc257f9190a46108c48183610c61866110c3565b6110e1565b6001600160a01b0381166000908152600960205260408120546104a69061124d565b6001600160a01b0381166000908152600760205260408120546104a6565b60606104d07f0000000000000000000000000000000000000000000000000000000000000000600561127e565b60606104d07f0000000000000000000000000000000000000000000000000000000000000000600661127e565b60006104d042610ad1565b80546000908015610d3b57610d2583610b8c600184611ccc565b54600160301b90046001600160d01b03166108b0565b60009392505050565b60006104a6610d516109a6565b8360405161190160f01b8152600281019290925260228201526042902090565b600080600080610d8388888888611329565b925092509250610d9382826113f8565b50909695505050505050565b6001600160a01b03821660009081526007602052604090208054600181019091558181146108c4576040516301d4b62360e61b81526001600160a01b038416600482015260248101829052604401610521565b60408051808201909152600080825260208201526001600160a01b03831660009081526009602052604090206108b090836114b1565b6001600160a01b038416610e525760405163e602df0560e01b815260006004820152602401610521565b6001600160a01b038316610e7c57604051634a1406b160e11b815260006004820152602401610521565b6001600160a01b038085166000908152600160209081526040808320938716835292905220829055801561094157826001600160a01b0316846001600160a01b03167f8c5be1e5ebec7d5bd14f71427d1e84f3dd0314c0f7b2291e5b200ac8c7c3b92584604051610eef91815260200190565b60405180910390a350505050565b6108c4838383611521565b600060018211610f16575090565b816001600160801b8210610f2f5760809190911c9060401b5b680100000000000000008210610f4a5760409190911c9060201b5b6401000000008210610f615760209190911c9060101b5b620100008210610f765760109190911c9060081b5b6101008210610f8a5760089190911c9060041b5b60108210610f9d5760049190911c9060021b5b60048210610fa95760011b5b600302600190811c90818581610fc157610fc1611cf2565b048201901c90506001818581610fd957610fd9611cf2565b048201901c90506001818581610ff157610ff1611cf2565b048201901c9050600181858161100957611009611cf2565b048201901c9050600181858161102157611021611cf2565b048201901c9050600181858161103957611039611cf2565b048201901c905061105881858161105257611052611cf2565b04821190565b90039392505050565b60005b818310156110bb5760006110788484611588565b60008781526020902090915065ffffffffffff86169082015465ffffffffffff1611156110a7578092506110b5565b6110b2816001611cdf565b93505b50611064565b509392505050565b6001600160a01b0381166000908152602081905260408120546104a6565b816001600160a01b0316836001600160a01b0316141580156111035750600081115b156108c4576001600160a01b038316156111ab576001600160a01b03831660009081526009602052604081208190611146906115a3611141866115af565b6115e3565b6001600160d01b031691506001600160d01b03169150846001600160a01b03167fdec2bacdd2f05b59de34da9b523dff8be42e5e38e818c82fdb0bae774387a72483836040516111a0929190918252602082015260400190565b60405180910390a250505b6001600160a01b038216156108c4576001600160a01b038216600090815260096020526040812081906111e49061161c611141866115af565b6001600160d01b031691506001600160d01b03169150836001600160a01b03167fdec2bacdd2f05b59de34da9b523dff8be42e5e38e818c82fdb0bae774387a724838360405161123e929190918252602082015260400190565b60405180910390a25050505050565b600063ffffffff821115610b04576040516306dfcc6560e41b81526020600482015260248101839052604401610521565b606060ff83146112985761129183611628565b90506104a6565b8180546112a490611c7c565b80601f01602080910402602001604051908101604052809291908181526020018280546112d090611c7c565b801561131d5780601f106112f25761010080835404028352916020019161131d565b820191906000526020600020905b81548152906001019060200180831161130057829003601f168201915b505050505090506104a6565b600080807f7fffffffffffffffffffffffffffffff5d576e7357a4501ddfe92f46681b20a084111561136457506000915060039050826113ee565b604080516000808252602082018084528a905260ff891692820192909252606081018790526080810186905260019060a0016020604051602081039080840390855afa1580156113b8573d6000803e3d6000fd5b5050604051601f1901519150506001600160a01b0381166113e4575060009250600191508290506113ee565b9250600091508190505b9450945094915050565b600082600381111561140c5761140c611d08565b03611415575050565b600182600381111561142957611429611d08565b036114475760405163f645eedf60e01b815260040160405180910390fd5b600282600381111561145b5761145b611d08565b0361147c5760405163fce698f760e01b815260048101829052602401610521565b600382600381111561149057611490611d08565b0361056f576040516335e2f38360e21b815260048101829052602401610521565b6040805180820190915260008082526020820152826000018263ffffffff16815481106114e0576114e0611d1e565b60009182526020918290206040805180820190915291015465ffffffffffff81168252600160301b90046001600160d01b0316918101919091529392505050565b61152c838383611667565b6001600160a01b03831661157d57600061154560025490565b90506001600160d01b038082111561157a57604051630e58ae9360e11b81526004810183905260248101829052604401610521565b50505b6108c4838383611791565b60006115976002848418611d34565b6108b090848416611cdf565b60006108b08284611d56565b60006001600160d01b03821115610b04576040516306dfcc6560e41b815260d0600482015260248101839052604401610521565b60008061160f6115f1610644565b6116076115fd88610d0b565b868863ffffffff16565b879190611807565b915091505b935093915050565b60006108b08284611d7d565b6060600061163583611815565b604080516020808252818301909252919250600091906020820181803683375050509182525060208101929092525090565b6001600160a01b0383166116925780600260008282546116879190611cdf565b909155506117049050565b6001600160a01b038316600090815260208190526040902054818110156116e55760405163391434e360e21b81526001600160a01b03851660048201526024810182905260448101839052606401610521565b6001600160a01b03841660009081526020819052604090209082900390555b6001600160a01b0382166117205760028054829003905561173f565b6001600160a01b03821660009081526020819052604090208054820190555b816001600160a01b0316836001600160a01b03167fddf252ad1be2c89b69c2b068fc378daa952ba7f163c4a11628f55a4df523b3ef8360405161178491815260200190565b60405180910390a3505050565b6001600160a01b0383166117b3576117b0600a61161c611141846115af565b50505b6001600160a01b0382166117d5576117d2600a6115a3611141846115af565b50505b6001600160a01b038381166000908152600860205260408082205485841683529120546108c4929182169116836110e1565b60008061160f85858561183d565b600060ff8216601f8111156104a657604051632cd44ac360e21b815260040160405180910390fd5b82546000908190801561193657600061185b87610b8c600185611ccc565b805490915065ffffffffffff80821691600160301b90046001600160d01b031690881682111561189e57604051632520601d60e01b815260040160405180910390fd5b8765ffffffffffff168265ffffffffffff16036118d757825465ffffffffffff16600160301b6001600160d01b03891602178355611928565b6040805180820190915265ffffffffffff808a1682526001600160d01b03808a1660208085019182528d54600181018f5560008f81529190912094519151909216600160301b029216919091179101555b945085935061161492505050565b50506040805180820190915265ffffffffffff80851682526001600160d01b0380851660208085019182528854600181018a5560008a815291822095519251909316600160301b029190931617920191909155905081611614565b6000815180845260005b818110156119b75760208185018101518683018201520161199b565b506000602082860101526020601f19601f83011685010191505092915050565b6020815260006108b06020830184611991565b80356001600160a01b0381168114611a0157600080fd5b919050565b60008060408385031215611a1957600080fd5b611a22836119ea565b946020939093013593505050565b600080600060608486031215611a4557600080fd5b611a4e846119ea565b9250611a5c602085016119ea565b9150604084013590509250925092565b600060208284031215611a7e57600080fd5b6108b0826119ea565b60ff60f81b881681526000602060e081840152611aa760e084018a611991565b8381036040850152611ab9818a611991565b606085018990526001600160a01b038816608086015260a0850187905284810360c0860152855180825283870192509083019060005b81811015611b0b57835183529284019291840191600101611aef565b50909c9b505050505050505050505050565b600060208284031215611b2f57600080fd5b5035919050565b803560ff81168114611a0157600080fd5b60008060008060008060c08789031215611b6057600080fd5b611b69876119ea565b95506020870135945060408701359350611b8560608801611b36565b92506080870135915060a087013590509295509295509295565b600080600080600080600060e0888a031215611bba57600080fd5b611bc3886119ea565b9650611bd1602089016119ea565b95506040880135945060608801359350611bed60808901611b36565b925060a0880135915060c0880135905092959891949750929550565b60008060408385031215611c1c57600080fd5b611c25836119ea565b9150611c33602084016119ea565b90509250929050565b60008060408385031215611c4f57600080fd5b611c58836119ea565b9150602083013563ffffffff81168114611c7157600080fd5b809150509250929050565b600181811c90821680611c9057607f821691505b602082108103611cb057634e487b7160e01b600052602260045260246000fd5b50919050565b634e487b7160e01b600052601160045260246000fd5b818103818111156104a6576104a6611cb6565b808201808211156104a6576104a6611cb6565b634e487b7160e01b600052601260045260246000fd5b634e487b7160e01b600052602160045260246000fd5b634e487b7160e01b600052603260045260246000fd5b600082611d5157634e487b7160e01b600052601260045260246000fd5b500490565b6001600160d01b03828116828216039080821115611d7657611d76611cb6565b5092915050565b6001600160d01b03818116838216019080821115611d7657611d76611cb656fea2646970667358221220be48a11b19883e1ea89539c6e966dcfbd34eccf56ae5ef131f0256163850039964736f6c63430008140033",
  "linkReferences": {},
  "deployedLinkReferences": {}
}